:1000000000800010C5000000190100001B01000065
:100010001D0100001F01000021010000BE79FFEF5B
:1000200000000000000000000000000025010000AA
:10003000270100000000000029010000C9010000A4
:100040002D0100002D0100002D0100002D010000F8
:100050002D010000D90400002D0100002D01000039
:100060002D0100002D0100002D0100002D010000D8
:100070002D0100002D0100002D0100002D010000C8
:100080002D0100002D0100002D0100002D010000B8
:100090002D0100002D0100002D0100002D010000A8
:1000A0002D0100002D0100002D0100002D01000098
:1000B0002D0100002D0100002D0100002D01000088
:1000C0002D0100000C4880470C490D4A0D4B9A4207
:1000D0003EBF51F8040B42F8040BF8E700200A4930
:1000E0000A4A91423CBF41F8040BFAE708488047AE
:1000F00008480047FEE700002D040000C0980000FB
:10010000000000101000001010000010A81A0010CD
:10011000550B0000C9030000FEE7FEE7FEE7FEE71F
:10012000FEE700BFFEE7FEE7FEE7FEE7FEE70000B2
:1001300080B483B000AF03463960FB7197F9073094
:10014000002B0BDA0D49FB7903F00F03043B3A68EF
:10015000D2B2D200D2B20B441A7609E0084997F91C
:1001600007303A68D2B2D200D2B20B4483F80023EF
:1001700000BF0C37BD4680BC704700BF00ED00E0FB
:1001800000E100E080B582B000AF78607B68B3F139
:10019000807F01D3012311E00A4A7B6823F07F436B
:1001A000013B53601F214FF0FF30FFF7C1FF054BAC
:1001B00000229A60034B07221A6000231846083772
:1001C000BD4680BD10E000E080B400AF084B1B6866
:1001D0000133074A1360074B1B68002B04D0054B03
:1001E0001B68013B034A136000BFBD4680BC7047DB
:1001F000F4120010F812001080B584B004AF01F0C2
:100200006FFF02F0C7F9124B124A1A60124B6FF0DF
:100210007F421A60114B124A1A60124B1868124B37
:100220000293124B0193002300930C4B0A4A084996
:1002300002F0D2FA0B4B1B68184602F0A5FB094BE3
:100240001B68184602F0AEFB00BFBD4680BD00BF74
:1002500040000010C0A82B644400001048000010AB
:10026000C0A82B3D00000010B5950000C98B000010
:1002700080B586B000AFF860B9607A600121B868D7
:1002800003F07AF9BB6804221A740C49B86803F0C9
:10029000E3FA0B49B86803F0FBFA0A49B86803F0BF
:1002A000E9FA00220849B86803F000FB00237B61EB
:1002B0007B6918461837BD4680BD00BFCD020000DF
:1002C000F5020000190300008503000080B487B028
:1002D00000AFF860B9607A603B60054B1B68013382
:1002E000034A13607B6918461C37BD4680BC7047C3
:1002F0004C00001080B584B000AF786039607B6836
:10030000FB60FB68002B02D1F86801F02DFF00BFF5
:100310001037BD4680BD00BF80B485B000AF7860A7
:1003200039600023FB60FB6818461437BD4680BC6B
:10033000704700BF80B582B000AF7860396000219F
:10034000786803F07BFA0021786803F093FA0021C3
:10035000786803F081FA0021786803F099FA0022A6
:100360000021786803F0A2FA3B68002B02D03868BD
:1003700001F0FAFE786802F063FC00BF0837BD4662
:1003800080BD00BF80B584B000AF786039607B6805
:10039000BB60BB68002B0CD0BB689B68002B0ED1E8
:1003A000BB681B78032B0AD1B9683868FFF7C2FF16
:1003B00005E0386802F0CCFC6FF00903FB60FB68D5
:1003C00018461037BD4680BD80B586B000AF786056
:1003D000396000F039FA0E4B0E4A1A600E4B0F4A84
:1003E0001A600F48FFF7CEFEFFF706FF03F01EFA74
:1003F00078610C4B3B610C4B42F228320949786919
:1004000002F05CFDF860002318461837BD4680BD39
:100410000013001055080000FC12001071080000C5
:10042000A08601001E01A8C07102000080B483B044
:1004300000AF00237B6002E07B6801337B607B6858
:10044000034A9342F8D900BF0C37BD4680BC7047C1
:100450001FA1070080B483B000AF0346FB710849B9
:1004600097F907305B09FA7902F01F02012000FAC0
:1004700002F241F8232000BF0C37BD4680BC704714
:1004800000E100E080B483B000AF03463960FB7147
:1004900097F90730002B0BDA0D49FB7903F00F03B6
:1004A000043B3A68D2B2D200D2B20B441A7609E0C9
:1004B000084997F907303A68D2B2D200D2B20B4459
:1004C00083F8002300BF0C37BD4680BC704700BFD7
:1004D00000ED00E000E100E080B500AF01F0BCFA03
:1004E00000BF80BD80B582B000AFF91C002301229F
:1004F000114801F00BFA78607B68002B17D00F4B86
:10050000DA680E4B9B6801335340DBB2002BECD012
:100510000A4B9B68F978094A13440A4683F810216C
:10052000064B9B680133DBB2044A9360DDE700BFF2
:1005300000BF0837BD4680BD00C00040500000101D
:1005400080B500AF00220121214801F041F800BF31
:100550001F4801F0A9F80346012BF9D012E01D4B0A
:100560005B6810331B4A991800230122184801F0D8
:1005700057F90346002B0ED0164B5B680133DBB2F4
:10058000144A5360134B1A68124B5B685340DBB23A
:10059000002BE4D100E000BF0E4B1A680D4B5B68E6
:1005A0005340DBB2002B08D100220121084801F0A2
:1005B0000FF8094B00221A7007E0074B01221A704E
:1005C00001220121024801F003F800BF80BD00BFF5
:1005D00000C00040500000106002001080B485B0E0
:1005E00000AF0346FB71FB79FB73FCE780B586B077
:1005F00000AFF860B9601346FB71BB687B610023F4
:100600003B6100220121F86800F0E2FF16E01A4B7E
:100610001B687A691178184A13440A461A747B6970
:1006200001337B61144B1B680133DBB2124A136048
:100630003B6901333B61FB79013BFB71FB79002B8B
:1006400008D00D4B5A680C4B1B6801335340DBB28A
:10065000002BDCD1094B1B78DBB2002B02D1FFF75A
:100660006FFF04E001220121F86800F0B1FF3B694F
:1006700018461837BD4680BD5000001060020010BB
:1006800080B586B000AFF860B9601346FB71BB68F7
:100690007B6100233B6100220021F86800F098FF95
:1006A00017E0164BDB68154A134493F81031DAB2A1
:1006B0007B691A707B6901337B61104BDB68013306
:1006C000DBB20E4AD3603B6901333B61FB79013BEE
:1006D000FB71FB79002B07D0084B9A68074BDB684E
:1006E0005340DBB2002BDCD101220021F86800F07E
:1006F0006FFF3B6918461837BD4680BD500000109B
:1007000080B586B000AF0123BB7100233B7200238C
:10071000FB7102237B7100233B713B1D184600F0E7
:10072000F1FB03237B713B1D184600F0EBFB07F147
:100730001003184600F008FF4FF4E1333B6107F166
:1007400010031946224800F0DDFD07F10C0318469E
:1007500001F012F807F10C0319461D4800F0B8FF2C
:100760001C4A00211A4801F02FF91B4A01211848A0
:1007700001F02AF9194A0321154801F025F9012150
:10078000134801F00FF801220021114800F020FF6A
:10079000012202210E4800F01BFF114B00221A70AB
:1007A000104B00229A600F4B0022DA600D4B0022A2
:1007B0001A600C4B00225A6009210520FFF762FEE7
:1007C0000520FFF747FE002318461837BD4680BDB9
:1007D00000C00040E504000041050000DD05000008
:1007E000600200105000001080B582B000AF0023FE
:1007F0003B7100237B7100BF3B1D01221946054858
:10080000FFF73EFF0346002BF6D03B79184608372A
:10081000BD4680BD00C0004080B584B000AF034637
:10082000FB71FB793B7300BF07F10C0301221946F2
:100830000448FFF7DBFE0346002BF5D000BF10375E
:10084000BD4680BD00C0004080B500AFFFF758FF37
:1008500000BF80BD80B582B000AF0346FB71FB795D
:100860001846FFF7D9FF00BF0837BD4680BD00BF5F
:1008700080B500AFFFF7B8FF0346184680BD00BF44
:1008800080B582B000AF0346FB71FB790A2B03D120
:10089000064B1B680D209847044B1B68FA791046DD
:1008A000984700BF0837BD4680BD00BF0013001049
:1008B00080B582B000AF786006E07B685A1C7A6031
:1008C0001B781846FFF7DCFF7B681B78002BF4D100
:1008D00000BF0837BD4680BD0FB480B58CB000AFF7
:1008E00007F13C037B6123E1FB7E252B04D0FB7EDB
:1008F0001846FFF7C5FF1BE1BB6B5A1CBA631B7898
:10090000FB7600233B62FB7E302B06D101233B624A
:10091000BB6B5A1CBA631B78FB7600237B620EE02C
:100920007A6A13469B0013445B001A46FB7E13440D
:10093000303B7B62BB6B5A1CBA631B78FB76FB7E39
:100940002F2B02D9FB7E392BEAD9FB7E6C2B02D0F0
:10095000FB7E4C2B08D13B6A43F002033B62BB6B2E
:100960005A1CBA631B78FB76FB7E002B00F0EA80F2
:10097000FB7EBB76BB7E602B02D9BB7E203BBB7669
:10098000BB7E423B162B4ED801A252F823F000BF8B
:100990000F0A0000FD0900001B0A0000270A0000E2
:1009A000270A0000270A0000270A0000270A000083
:1009B000270A0000270A0000270A0000270A000073
:1009C000270A0000150A0000270A0000270A000075
:1009D000270A0000ED090000270A00001B0A00009A
:1009E000270A0000270A0000210A00007B691A1D5F
:1009F0007A611B681846FFF75BFF99E07B691A1D57
:100A00007A611B68DBB21846FFF73AFF90E00223D9
:100A1000FB620DE00823FB620AE00A23FB6207E0A9
:100A20001023FB6204E0FB7E1846FFF729FF7FE0FE
:100A30003B6A03F00203002B05D07B691A1D7A6123
:100A40001B68FB610DE0BB7E442B05D17B691A1D41
:100A50007A611B68FB6104E07B691A1D7A611B687F
:100A6000FB61BB7E442B09D1FB69002B06DAFB69D5
:100A70005B42FB613B6A43F004033B620023BB62C1
:100A8000FB69FA6AB3FBF2F2F96A01FB02F29B1A04
:100A9000BB76FA69FB6AB2FBF3F3FB61BB7E092B01
:100AA00008D9BB7E0733BB76FB7E782B02D1BB7E99
:100AB0002033BB76BB6A5A1CBA62BA7E3032D2B2DD
:100AC00007F130010B4403F82C2CFB69002B02D0FA
:100AD000BB6A0F2BD4D93B6A03F00403002B14D05C
:100AE000BB6A5A1CBA6207F1300213442D2203F884
:100AF0002C2C0AE03B6A03F00103002B01D03023C9
:100B000000E020231846FFF7BBFE7B6A5A1E7A627C
:100B1000BA6A9342EED8BB6A013BBB623A1DBB6A1C
:100B200013441B781846FFF7ABFEBB6A002BF2D1CB
:100B3000BB6B5A1CBA631B78FB76FB7E002B7FF4E1
:100B4000D3AE00E000BF00BF3037BD46BDE88040F7
:100B500004B0704780B400AF494B2022C3F8A021F5
:100B600000BF474BD3F8A03103F04003002BF8D06F
:100B7000434B0322C3F80421414B0022C3F8A821B0
:100B80003F4B0022C3F8AC213D4B0122C3F80C219E
:100B90003B4B3C4AC3F88420394BAA22C3F88C2033
:100BA000374B5522C3F88C20354B0122C3F88020E7
:100BB000334BAA22C3F88C20314B5522C3F88C202A
:100BC00000BF2F4BD3F8883003F08063002BF8D0A0
:100BD0002B4B0322C3F88020294BAA22C3F88C2078
:100BE000274B5522C3F88C2000BF254BD3F8883003
:100BF00003F04073002BF8D0214B2322C3F8A4202C
:100C00001F4BAA22C3F8AC201D4B5522C3F8AC20C1
:100C10001B4B0122C3F8A020194BAA22C3F8AC2019
:100C2000174B5522C3F8AC2000BF154BD3F8A830A2
:100C300003F48063002BF8D0114B0322C3F8A020EB
:100C40000F4BAA22C3F8AC200D4B5522C3F8AC20A1
:100C500000BF0B4BD3F8A83003F44073002BF8D03F
:100C6000074B094AC3F8C420054B0022C3F8C8212A
:100C7000034B43F23A021A6000BFBD4680BC704786
:100C800000C00F4063000500DE87280480B485B0F3
:100C900000AF78607B681F2B06D87B68FB600C4B2D
:100CA000D3F8A831BB6006E07B68203BFB60084BB3
:100CB000D3F8AC31BB60BA68FB6822FA03F303F0E7
:100CC0000303BB60BB6818461437BD4680BC704741
:100CD00000C00F4080B584B000AF7860154B1B6832
:100CE000BB607868FFF7D2FFF860FB68032B17D86A
:100CF00001A252F823F000BF090D00000F0D000003
:100D0000150D00001B0D00000423FB6008E001230B
:100D1000FB6005E00223FB6002E00823FB6000BFEC
:100D2000BA68FB68B2FBF3F3BB60BB6818461037C8
:100D3000BD4680BD0400001080B483B000AF786071
:100D40000B46FB70FB78012B0AD10F480E4BD3F8F2
:100D5000C42079680D4B0B401343C0F8C4300DE03C
:100D6000FB78002B0AD10849074BD3F8C4207B68D5
:100D7000DB431A40054B1340C1F8C43000BF0C37A9
:100D8000BD4680BC704700BF00C00F40DEF7EFEFEC
:100D900080B487B000AF0346FB710B46BB711346AE
:100DA0007B71BB797B61FB795B003B61184BFB601E
:100DB0007B690F2B05D97B69103B7B613B69013354
:100DC0003B613B699B00FA6813443A699200F968F9
:100DD0000A4411687A695200032000FA02F2D243F1
:100DE0000A401A603B699B00FA6813443A69920012
:100DF000F9680A44116878797A69520000FA02F2B7
:100E00000A431A6000BF1C37BD4680BC704700BF54
:100E100000C0024080B487B000AF0346FB710B46B0
:100E2000BB7113467B71BB797B61FB795B003B61D6
:100E3000184BFB607B690F2B05D97B69103B7B61ED
:100E40003B6901333B613B699B00FA6813443A6993
:100E50009200F9680A4411687A695200032000FA86
:100E600002F2D2430A401A603B699B00FA681344BD
:100E70003A699200F9680A44116878797A695200EF
:100E800000FA02F20A431A6000BF1C37BD4680BC5C
:100E9000704700BF40C0024080B485B000AF034639
:100EA000FB710B46BB7113467B71154BFB607B7965
:100EB000012B0FD1FB799B00FA681344FA79920059
:100EC000F9680A441168BA79012000FA02F20A436B
:100ED0001A600FE0FB799B00FA681344FA799200DC
:100EE000F9680A441168BA79012000FA02F2D24383
:100EF0000A401A6000BF1437BD4680BC704700BF6F
:100F000068C0024080B582B000AF78607B68187816
:100F10007B6859787B689B781A46FFF739FF7B68B6
:100F200018787B6859787B68DB781A46FFF772FF80
:100F30007B6818787B6859787B681B791A46FFF7BD
:100F4000ABFF00BF0837BD4680BD00BF80B483B093
:100F500000AF78607B680B4A934201D100230CE01C
:100F60007B68094A934201D1012306E07B68074A66
:100F7000934201D1022300E0032318460C37BD46FB
:100F800080BC704700C00040000001400080094064
:100F900080B58EB000AF78603960002387F83730B5
:100FA0000023FB600023BB6000237B6201233B62C4
:100FB0000023FB610023BB6100237B61724B3B611B
:100FC0007B68724A934204D10620FFF783FE3863A0
:100FD00015E07B686E4A934204D10820FFF77AFE41
:100FE00038630CE07B686B4A934204D13020FFF7F2
:100FF00071FE386303E03220FFF76CFE38633B6B11
:101000001B093B630123FB6256E00023BB6248E0FF
:10101000FB6A3A6B02FB03F2F96ABB6A0B44B2FB50
:10102000F3F3BB60BA683B68B2FBF3F37B62BB6867
:101030003A68B3FBF2F2396801FB02F29A1A3B6894
:101040005B089A4202D97B6A01337B627B6A022B7E
:1010500024D97B6AB3F5803F20D2BA687B6AB2FBA1
:10106000F3F3FB60FA683B689A4204D83A68FB687D
:10107000D31A7B6103E0FA683B68D31A7B617A6913
:101080003B699A420AD2FB6A3B62BB6AFB617B6A9C
:10109000BB617B693B617B69002B06D0BB6A013376
:1010A000BB62BB6A0F2BB3D900E000BF7B69002B8A
:1010B00006D0FB6A0133FB62FB6A0F2BA5D900E067
:1010C00000BF3A6813465B001344334AA2FB032374
:1010D0005A093B699A4251D97B682D4A934223D1E0
:1010E0007B681B7BDBB263F07F03DAB27B681A7329
:1010F000BB691B0ADAB27B681A71BB69DAB27B681A
:101100001A707B681B7BDBB203F07F03DAB27B686B
:101110001A733B6A1B01DAB2FB6903F00F03134336
:10112000DAB27B689A6226E07B681B7BDBB263F0F5
:101130007F03DAB27B681A73BB691B0ADAB27B6879
:101140001A71BB69DAB27B681A707B681B7BDBB2F1
:1011500003F07F03DAB27B681A733B6ADBB21B01D0
:10116000DAB2FB69DBB203F00F03DBB21343DAB28E
:101170007B6883F82820012387F8373097F83730C9
:1011800018463837BD4680BDA086010000C000402B
:1011900000000140008009401F85EB5180B588B0F8
:1011A00000AF78607868FFF7D1FE0346FB777B6875
:1011B0009B68BB61BB6903F00E037B61FB7F012B66
:1011C00015D17B69002B12D14B4B1B7EFB744B4B13
:1011D0001B68002B05D0494B1B68FA7C10469847CA
:1011E00005E0454A444B5B6823F0880353607B6904
:1011F000062B23D17B681B7DDBB2FB60FB6803F011
:101200009E03FB60FB68002B18D0FB7F3C4A1B0150
:1012100013440C331B68002B0AD0FB7F384A1B0198
:1012200013440C331B68FA68D2B21046984705E0A5
:101230007B685B6823F004027B685A607B69042B3F
:1012400002D07B690C2B15D1FB7F2D4A1B01134467
:1012500004331B68002B07D0FB7F294A1B01134472
:1012600004331B68984705E07B685B6823F0010244
:101270007B685A607B69022B13D1FB7F204A1B01DC
:1012800013441B68002B06D0FB7F1D4A1B0113442F
:101290001B68984705E07B685B6823F002027B6867
:1012A0005A60BB6903F44073BB61BB69002B1ED05D
:1012B0007B681A6ABB6903F440731A437B681A623D
:1012C000FB7F0F4A1B01134408331B68002B08D017
:1012D000FB7F0B4A1B01134408331B68B86998470E
:1012E00005E07B685B6823F440727B685A6000BF4E
:1012F0002037BD4680BD00BF00000140A4020010A1
:101300006402001080B584B000AF786039607B68FB
:10131000894A934203D101210820FFF70DFD7B6824
:10132000864A934203D101211020FFF705FD7B6817
:10133000834A934204D101214FF08070FFF7FCFCF7
:101340007B68804A934204D101214FF00070FFF77F
:10135000F3FC7B68794A934242D17B6807221A7278
:101360007B6800221A7203E07B681B78DBB2FB60AB
:101370007B681B7DDBB203F00103002BF4D17B689B
:10138000802283F8302000BF7B681B7DDBB203F036
:101390002003002BF8D07B68002283F830207B6884
:1013A00000225A607B6800221A737B6800221A624E
:1013B0007B6800221A747B68002283F84C207B68CB
:1013C000002283F854207B68002283F850207B6839
:1013D0001B7EDBB2FB607B681B7DDBB2FB602EE01B
:1013E0007B6807221A727B6800221A7203E07B680E
:1013F0001B78DBB2FB607B681B7DDBB203F0010373
:10140000002BF4D17B68802283F8302000BF7B68FA
:101410001B7DDBB203F02003002BF8D07B68002299
:1014200083F830207B6800225A607B6800221A73A0
:101430007B6800221A627B681B7DDBB2FB607B68E5
:10144000404A934203D17B68002283F824203B6802
:101450001B6819467868FFF79BFD7B68374A934203
:1014600006D17B681B7BDBB203F0C003FB6005E0A9
:101470007B681B7BDBB203F0C003FB603B685B79DE
:10148000012B04D0022B07D0002B0FD009E0FB6802
:1014900043F00103FB600AE0FB6843F00203FB60DA
:1014A00005E0FB6843F00303FB6000E000BF3B681E
:1014B0001B79002B24D0FB6843F00803FB603B68DA
:1014C0001B79013B032B1AD801A252F823F000BF6D
:1014D000FF140000E1140000EB140000F5140000FC
:1014E000FB6843F01003FB600AE0FB6843F0200355
:1014F000FB6005E0FB6843F03003FB6000E000BFE9
:101500003B689B79012B00D004E0FB6843F00403A7
:10151000FB6000BF7B68094A934204D1FB68DAB2E2
:101520007B681A7303E0FB68DAB27B681A7300BF4A
:101530001037BD4680BD00BF00C000400000014024
:101540000080094000C0094080B483B000AF7860DB
:101550007B684FF416521A607B6803225A717B68CD
:1015600000221A717B6800229A7100BF0C37BD46B9
:1015700080BC704780B483B000AF78600B46FB70CE
:101580007B68074A934203D17B68FA781A7002E0BD
:101590007B68FA781A7000BF0C37BD4680BC704774
:1015A0000000014080B483B000AF78607B68074AD8
:1015B000934203D17B681B78DBB202E07B681B7827
:1015C000DBB218460C37BD4680BC704700000140B6
:1015D00080B485B000AF78600B46FB701346BB70DB
:1015E000FB78062B27D801A252F823F00916000039
:1015F0000F160000151600001B1600002116000033
:10160000271600002F1600000123FB6016E00223BE
:10161000FB6013E00423FB6010E00823FB600DE097
:101620008023FB600AE04FF48073FB6006E04FF418
:101630000073FB6002E00123FB6000BFBB78012B5D
:1016400011D17B68174A934206D17B685A68FB68C0
:101650001A437B685A601FE07B685A68FB681A432C
:101660007B685A6018E07B680E4A93420AD17B6817
:101670005A68FB68DB431A4040F28F3313407A68A4
:10168000536009E07B685A68FB68DB431A4040F20C
:10169000073313407A68536000BF1437BD4680BCDF
:1016A000704700BF0000014080B483B000AF786095
:1016B0007B681B7DDBB203F04003002B01D00023CD
:1016C00000E0012318460C37BD4680BC704700BFC0
:1016D00080B485B000AF786039600023FB73FB7B7A
:1016E00043F00103FB733B68DB78012B04D0022B32
:1016F00007D0002B0FD009E0FB7B43F04003FB73C6
:101700000AE0FB7B63F07F03FB7305E0FB7B63F088
:101710003F03FB7300E000BF3B685B78012B03D104
:10172000FB7B43F00403FB733B681B78012B03D165
:10173000FB7B43F00203FB733B689B78012B03D1D7
:10174000FB7B43F00803FB737B680A4A934206D194
:10175000FB7B23F03003DAB27B681A7205E0FB7B77
:1017600023F03003DAB27B681A7200BF1437BD462B
:1017700080BC70470000014080B483B000AF786047
:101780007B6800229A707B680022DA707B680122F5
:101790001A707B6801225A7000BF0C37BD4680BCAE
:1017A000704700BF80B483B000AF78600B46FB7019
:1017B000FB78012B19D17B68184A93420AD17B68C8
:1017C00093F83030DBB263F07F03DAB27B6883F8E2
:1017D00030201DE07B6893F83030DBB263F07F038C
:1017E000DAB27B6883F8302012E07B680B4A9342C0
:1017F00007D17B6893F830307B68002283F8302073
:1018000006E07B6893F830307B68002283F8302054
:1018100000BF0C37BD4680BC704700BF00000140D0
:1018200080B58AB000AFF860B9607A60FB70BB68C1
:101830007B617B687B62FB78012B36D100233B62A6
:101840002FE04FF0FF33FB6105E0FB69002B0AD06E
:10185000FB69013BFB61FB681B7DDBB203F02003EE
:10186000002BF2D000E000BFFB69002B45D0102315
:10187000BB6110E07B695A1C7A611B781946F868D5
:10188000FFF778FEBB69013BBB617B6A013B7B6272
:101890003B6A01333B62BB69002B02D07B6A002BA1
:1018A000E8D17B6A002BCCD12AE000233B6220E008
:1018B000FB681B7DDBB203F02003002B1FD010233D
:1018C000BB6110E07B695A1C7A611B781946F86885
:1018D000FFF750FE7B6A013B7B62BB69013BBB614A
:1018E0003B6A01333B62BB69002B02D07B6A002B51
:1018F000E8D17B6A002BDBD102E000BF00E000BF33
:101900003B6A18462837BD4680BD00BF90B589B0F8
:1019100000AFF860B9607A60FB70BB683B617B68C0
:10192000FB61FB78012B2AD10023BB6123E04FF040
:10193000FF337B6105E07B69002B0AD07B69013BAB
:101940007B61FB681B7DDBB203F00103002BF2D04F
:1019500000E000BF7B69002B2DD03C69631C3B611C
:10196000F868FFF71FFE03462370FB69013BFB612C
:10197000BB690133BB61FB69002BD8D11EE000239A
:10198000BB6114E0FB681B7DDBB203F00103002B9D
:1019900013D03C69631C3B61F868FFF703FE034604
:1019A0002370BB690133BB61FB69013BFB61FB69D0
:1019B000002BE7D102E000BF00E000BFBB69184682
:1019C0002437BD4690BD00BF80B586B000AFF8603B
:1019D0000B467A60FB72F868FFF7B8FA0346FB75AE
:1019E000FB7A042B2FD801A252F823F0011A000031
:1019F000111A00001F1A00002F1A00003F1A0000E1
:101A0000FB7D7A6812491B010B4404331A601BE00A
:101A1000FB7D7A680E491B010B441A6014E0FB7DC4
:101A20007A680B491B010B4408331A600CE0FB7DFC
:101A30007A6807491B010B440C331A6004E07B6889
:101A4000044A136000E000BF00BF1837BD4680BDE8
:101A500064020010A402001080B500AF0248FFF736
:101A60009DFB00BF80BD00BF00C0004080B588B0B6
:101A700000AFB14AB04BD3F8C43043F08043C2F852
:101A8000C430AE4BAE4A9A60AC4AAC4BDB6823F034
:101A90000F0343F00503D3604FF0A0434FF44F42D0
:101AA0001A604FF0A0437822C3F8002164237B60C2
:101AB00002E07B68013B7B607B68002BF9D14FF033
:101AC000A04302221A604FF0A04330225A604FF028
:101AD000A0434FF4C0625A614FF0A04343F20F722B
:101AE0001A614FF0A0431222DA604FF0A04348F28F
:101AF0003C021A6264237B6002E07B68013B7B60EE
:101B00007B68002BF9D14FF0A0433C221A624FF0C2
:101B1000A0434FF43072C3F800214FF0A0434FF4BC
:101B200010629A6164237B6002E07B68013B7B600A
:101B30007B68002BF9D14FF0A0434FF480729A617B
:101B40004FF40041002000F001F94FF47A737B60FC
:101B500002E07B68013B7B607B68002BF9D10023AE
:101B60007B600CE0002000F01BF90346FB61FB6981
:101B700003F40043002B07D07B6801337B607B6854
:101B8000B3F5801FEED300E000BF7B68B3F5801F84
:101B900001D30023CBE0022000F002F903463B61B1
:101BA000032000F0FDF80346FB603B691A04F96866
:101BB0004FF6F0730B401343BB60BB68614A93421E
:101BC00005D0BB68604A934201D00023AFE04FF4D8
:101BD0004051002000F0BAF800237B600CE00120A7
:101BE00000F0DEF80346FB61FB6903F02003002BE5
:101BF00007D17B6801337B607B68B3F5801FEED330
:101C000000E000BF7B68B3F5801F01D300238EE0A6
:101C10001023BB6101237B61BB684B4A934203D114
:101C20000123BB6104237B6100237B600EE0BB6961
:101C3000DBB2184600F0B4F80346FB61FA697B6931
:101C40001340002B07D17B6801337B607B68B3F5C1
:101C5000801FECD300E000BF7B68B3F5801F01D389
:101C6000002364E0FB6903F00403002B16D04FF05F
:101C7000A0424FF0A0435B6843F0010353604FF074
:101C8000A0424FF0A043D3F8003143F48063C2F880
:101C900000314FF0A04315229A6003E04FF0A043BB
:101CA00012229A60FB6903F00203002B04D04FF06C
:101CB000A04300229A6104E04FF0A0434FF48072E9
:101CC0009A614FF0A04343F21E021A644FF0A04302
:101CD0004AF26C225A644FF0A04345F645629A647A
:101CE00000F0F8F800F04EF94FF0A0432222C3F8BC
:101CF00000224FF0A0438822C3F8E42F4FF0A04306
:101D00004FF6FF72C3F8E82F4FF0A0424FF0A04308
:101D1000D3F8003143F00303C2F800314FF0A04282
:101D20004FF0A0431B6843F00103136001231846E2
:101D30002037BD4680BD00BF00C00F4000C002403C
:101D400005011550905C0020F0C0070080B485B0FC
:101D500000AF786039604FF0A0427B6843F4807335
:101D600093624FF0A0423B68D3620023FB600023E4
:101D7000FB6009E04FF0A0435B6B03F00103002B15
:101D800007D0FB680133FB60FB68B3F5A02FF1D3EC
:101D900000E000BF00BF1437BD4680BC704700BFE5
:101DA00080B485B000AF0346FB714FF0A042FB79D1
:101DB00043F4807393624FF0A04301225A620023E0
:101DC000FB600023FB6009E04FF0A0435B6B03F076
:101DD0000103002B07D0FB680133FB60FB68B3F500
:101DE000A02FF1D300E000BF4FF0A04300225A62C1
:101DF0004FF0A0431B6B9BB218461437BD4680BC06
:101E0000704700BF80B584B000AF786039604FF094
:101E1000A043D3F828310133FB603B68002B01D18C
:101E200001234FE04FF0A043D3F82421FB689A42EE
:101E300001D20023FB604FF0A043D3F82C21FB68B4
:101E40009A4201D100233DE04FF0A043D3F828315E
:101E5000BB603B68B3F5C06F02D94FF4C0633B6011
:101E6000BA6813465B0013445B021A46174B1344CF
:101E70003A687968184607F009FCBB68DA00144B29
:101E800013441946BB68DA00114B13441B6823F452
:101E9000FF6323F007030B60BB68DA000C4B1344AD
:101EA0001946BB68DA000A4B13441A683B68013BC9
:101EB000C3F30A0313430B604FF0A042FB68C2F860
:101EC0002831012318461037BD4680BD641808200C
:101ED0004400082080B483B000AF00237B6027E07B
:101EE0007B6803F1806303F58033DB0019467A6871
:101EF00013465B0013445B021A461B4B13440B60F2
:101F00007B68DA00194B13441A46194B13607A6840
:101F1000184B1344DB001A46002313607B68DA0079
:101F2000154B13441A46002313607B6801337B6012
:101F30007B68032BD4D94FF0A043104AC3F8082183
:101F40004FF0A0430E4AC3F80C214FF0A0430322E8
:101F5000C3F810214FF0A0430022C3F8182100BF9E
:101F60000C37BD4680BC7047640008200400082080
:101F7000FF05008004000104240008200000082060
:101F80002000082080B483B000AF00237B601EE0F7
:101F90007A681D4B1344DB0019467A6813465B00D0
:101FA00013445B021A46194B13440B607B68DA003A
:101FB000174B13441A46174B13607A68164B134499
:101FC0009B001A46002313607B6801337B607B68AB
:101FD000022BDDD94FF0A043104AC3F81C214FF06B
:101FE000A0430F4AC3F820214FF0A0430222C3F8B8
:101FF00024214FF0A0430022C3F8282100BF0C3752
:10200000BD4680BC704700BF08000104641808206A
:1020100044000820FF0500F41600020840000820D4
:102020005800082080B485B000AF7860294B1B6849
:102030007A6812881344FB607A68FB689A421FD062
:10204000FB681B79002B1BD1234B1B68FA689A4253
:1020500016D0224B1A68FB689A4202D11F4A7B684D
:102060001360FB681A887B681A801A4B1B68FA6831
:10207000128813447A6817490968521A92B25A8032
:10208000144B1B687A6852881344BB60BA687B683B
:102090009A421AD0BB681B79002B16D10F4B1A68D5
:1020A0007B689A4202D10D4ABB6813607B681A882C
:1020B000BB681A80074B1B687A6812881344BA6899
:1020C00004490968521A92B25A8000BF1437BD46BB
:1020D00080BC7047A8020010AC020010B0020010D3
:1020E00080B483B000AF1B4B033323F003031A46C5
:1020F000194B1A60184B1B687B607B684FF4C862F1
:102100001A807B6800225A807B6800221A71124B69
:102110001B6803F5C863114A1360104B1B6801224A
:102120001A710E4B1B684FF4C8621A800B4B1B6868
:102130004FF4C8625A80084B1B68094A1360094B68
:102140004FF4C862A3F8A82000BF0C37BD4680BC7E
:10215000704700BF04130010A8020010AC0200106A
:10216000B00200107819001080B584B000AF78601C
:102170007B68002B39D01F4B1B687A689A421D4B35
:102180001B687A689A4204D31B4B1B687A689A4290
:1021900008D31A4BB3F8B03001339AB2174BA3F8F7
:1021A000B02023E07B68083BFB60FB6800221A71CB
:1021B000134B1B68FA689A4202D2114AFB681360FB
:1021C0000E4BB3F8AA20FB680A4909685B1A99B25A
:1021D000FB681B88CB1A9BB213449AB2074BA3F837
:1021E000AA20F868FFF71EFF00E000BF1037BD46C9
:1021F00080BD00BFA8020010AC02001078190010CA
:10220000B002001080B487B000AF78600B467B80CE
:102210007B8803339BB223F003037B807B880B2BEB
:1022200001D80C237B807B88B3F5C86F01D90023CC
:10223000B9E05F4B1B687A689A425D4B1B687A680D
:102240009A4204D35B4B1B687A689A4209D35A4B73
:10225000B3F8B03001339AB2574BA3F8B0207B6883
:10226000A1E07B68083B7B617B69514A12689B1A3D
:102270007B827B691A887B8AD31A9BB2083B3B829C
:102280007A883B8A9A4201D900238CE07A883B8A7B
:102290009A4201D17B6886E0454B1B687A691288B7
:1022A0001344FB60FB681B79002B3DD1FB681B8846
:1022B0007B817A8A7B8813449BB208333B813F4BF6
:1022C0001A68FB689A4205D1394B1A683B89134456
:1022D0003A4A1360364B1A683B891344FB60FB682B
:1022E00000221A71FB687A891A80FB687A8A5A8000
:1022F0007B693A891A80FB681B88B3F5C86F06D0E2
:102300002B4B1B68FA68128813443A895A802A4B6F
:10231000B3F8AA2079883B8ACB1A9BB213449AB2AD
:10232000254BA3F8AA203DE07B8803F114023B8AE9
:102330009A4237D87A8A7B8813449BB208333B8110
:102340001B4B1A683B891344FB601C4B1B68FA68E3
:102350009A4202D2194AFB681360FB6800221A7184
:102360007B691A88FB681A80FB687A8A5A807B69C5
:102370003A891A80FB681B88B3F5C86F06D00C4BEE
:102380001B68FA68128813443A895A800A4BB3F8DA
:10239000AA2079883B8ACB1A9BB213449AB2064B87
:1023A000A3F8AA207B6818461C37BD4680BC70473E
:1023B000A8020010AC02001078190010B002001042
:1023C00080B487B000AF0346FB80FB88002B01D1AF
:1023D0000023D2E0FB8803339BB223F00303FB808E
:1023E000FB880B2B01D80C23FB80FB88B3F5C86F4F
:1023F00001D90023C1E0634B1B681A46624B1B687E
:10240000D31AFB82A9E0604B1A68FB8A13443B6134
:102410003B691B79002B40F09A803B691B881A4668
:10242000FB8AD31AA3F10802FB889A42C0F08F807E
:102430003B691B881A46FB8AD31AA3F10802FB8862
:1024400014339A4240D3FA8AFB8813449BB2083370
:10245000FB814D4B1A68FB891344BB60BB680022AB
:102460001A713B691A88BB681A80BB68FA8A5A805D
:102470003B69FA891A803B6901221A71BB681B8883
:10248000B3F5C86F06D0404B1B68BA681288134476
:10249000FA895A803D4BB3F8AA20FB8813449BB2BB
:1024A00008339AB2394BA3F8AA20384BB3F8AC20C2
:1024B000364BB3F8AA309A4228D2344BB3F8AA204C
:1024C000324BA3F8AC2021E03B6901221A712F4B5B
:1024D000B3F8AA203B6919883B692B4800681B1A8E
:1024E0009BB2CB1A9BB213449AB2284BA3F8AA20F2
:1024F000264BB3F8AC20254BB3F8AA309A4205D24C
:10250000224BB3F8AA20214BA3F8AC201D4B1B682B
:102510003A699A4218D107E01B4B1B68194A1268A6
:1025200012881344174A1360164B1B681B79002B43
:1025300005D0144B1A68164B1B689A42ECD1114B0C
:102540001A68134B1B689A423B69083315E00E4B1F
:102550001A68FB8A13441B88FB82FA8AFB88C3F53E
:10256000C8639A42FFF64FAF084BB3F8AE30013361
:102570009AB2064BA3F8AE20002318461C37BD467E
:1025800080BC7047B0020010A8020010781900103B
:10259000AC02001080B483B000AF00237B802EE03B
:1025A0007A88344913469B0013445B000B44B433D0
:1025B00000221A807A882F4913469B0013445B003F
:1025C0000B44B63300221A807A882A4913469B00AE
:1025D00013445B000B44B83300221A807A887B884E
:1025E000254931F81300234913469B0013445B002F
:1025F0000B44B23302461A807B8801337B807B8890
:10260000092BCDD91D4B033323F003037B6000233B
:102610007B8027E07B881A4A002142F823100023A0
:102620003B8015E07B88164A52F823207B681A60AD
:102630007B8813497A6841F823207B88114A32F855
:1026400013301A467B6813447B603B8801333B8020
:102650007B88094A32F813303A889A42E2D37B8861
:1026600001337B807B88092BD4D900BF0C37BD4652
:1026700080BC70477819001028980000DC02001018
:10268000B40200101498000080B485B000AF034677
:10269000FB71FB79092B01D900235FE0FB79324AFA
:1026A00052F82330FB60FB68002B42D0FB79FA68BC
:1026B00012682D4941F82320FA79F9792B480B4605
:1026C0009B000B445B000344B4331B88013398B276
:1026D000264913469B0013445B000B44B433024667
:1026E0001A80FA79214913469B0013445B000B447E
:1026F000B6331988FA791D4813469B0013445B00D2
:102700000344B4331B88994227D2FA79F9791748E0
:102710000B469B000B445B000344B43318881349F9
:1027200013469B0013445B000B44B63302461A80E9
:1027300013E0FA790D4913469B0013445B000B44E8
:10274000B8331B88013398B2084913469B001344E1
:102750005B000B44B83302461A80FB6818461437F6
:10276000BD4680BC704700BFB4020010781900104D
:1027700080B485B000AF03463960FB713B68002B25
:1027800021D03B68FB60FA79114913469B00134442
:102790005B000B44B4331B88013B98B20C491346D1
:1027A0009B0013445B000B44B43302461A80FB7950
:1027B000084A52F82320FB681A60FB790549FA6839
:1027C00041F8232000E000BF1437BD4680BC7047AD
:1027D00078190010B402001080B584B000AFF86022
:1027E000B9607A603B60FB6800225A60FB68002297
:1027F0009A60FB680022DA60FB68002283F82920D7
:10280000FB68BA69DA61134B1B785A1CD1B2114AC2
:102810001170FA6882F82C30FB683A6A1A613B68DA
:102820007A68B968F86800F019F8FB69F8689847A1
:102830000346002B01D0002307E0074B1A68FB6812
:102840001A60054AFB681360FB6818461037BD46DE
:1028500080BD00BFEB1100105819001080B584B086
:1028600000AFF860B9607A603B60B968F86800F062
:102870000DF87968F86800F073F83968F86800F0C6
:102880005BF800BF1037BD4680BD00BF80B586B085
:1028900000AF786039603B681A687B685B689A4271
:1028A00038D0234B1B687B6111E07B691A687B6819
:1028B0005B689A4208D17B69DB68FB60786900F04D
:1028C00047FAFB687B6102E07B69DB687B617B69BF
:1028D000002BEAD1174B1B683B6118E03B69002BCA
:1028E00012D03B691B68002B0ED03B691A687B68CD
:1028F0005B689A4208D13B68002B02D03B681B689A
:1029000000E000233A6913603B69DB683B613B6987
:10291000002BE3D13B68002B02D03B681B6800E032
:1029200000237A68536000BF1837BD4680BD00BFE2
:10293000601900106819001080B483B000AF78608F
:1029400039603B68002B02D03B681B6800E0002325
:102950007A68D36000BF0C37BD4680BC704700BFAB
:1029600080B483B000AF786039603B68002B02D040
:102970003B681B6800E000237A68936000BF0C3757
:10298000BD4680BC704700BF80B483B000AF7860A4
:10299000034A7B68136000BF0C37BD4680BC70479C
:1029A0005C19001080B582B000AF78607B6893F846
:1029B000293003F00103002B1CD17B6893F82930E8
:1029C00043F00103DAB27B6883F829207B6893F82F
:1029D000293003F01003002B0CD07B6893F82930CA
:1029E00003F02003002B05D07B6804331946786878
:1029F00006F0BEFD00BF0837BD4680BD80B500AF04
:102A000000F02CFD074B1B780133DAB2054B1A702E
:102A1000044B1B7803F00103002B01D000F01EFBD8
:102A200000BF80BDEC110010B0B586B002AF786079
:102A30000B46FB70FB78002B57D07B681B7C012B6F
:102A400053D07B68D3F88030002B04D17B681B8D7A
:102A5000B3F5066F49D07B68986D7B68596A7C68CE
:102A60007B681D1D7B689B8B7A68D28B01920093DB
:102A70002B46224601F090FC786800F02BFF6B4B50
:102A80001A687B689A4205D1684B1B68DB68674A05
:102A9000136019E0654B1B68654A136010E0644BD6
:102AA0001B68DA687B689A4205D1614B1B687A68BB
:102AB000D268DA6008E05E4B1B68DB685C4A136032
:102AC0005B4B1B68002BEAD17B680022DA607B68D5
:102AD0000A221A74574B1A687B68DA60554A7B6879
:102AE000136004F069FA00239CE07B681B7C072BD1
:102AF00000F2848001A252F823F000BF1D2B0000D9
:102B0000872B0000A12B0000BB2B0000D12B000065
:102B1000FD2B0000FD2B0000E72B00000023FB60D5
:102B20007B689B8B002B27D0434B1A687B689A42AB
:102B300005D1414B1B68DB683F4A136019E03E4BEF
:102B40001B683B4A136010E0394B1B68DA687B68EE
:102B50009A4205D1364B1B687A68D268DA6008E081
:102B6000334B1B68DB68324A1360314B1B68002B08
:102B7000EAD17B680022DA6079680220FFF7F8FD6D
:102B800000237B6044E00023FB6079682B4800F061
:102B9000E5FE79680320FFF7EBFD00237B6037E05B
:102BA0000023FB607968214800F0D8FE7968022094
:102BB000FFF7DEFD00237B602AE0786800F0C2FFAB
:102BC000F860FB68002B1ED17B6805221A741AE09E
:102BD000786800F0B7FFF860FB68002B15D17B68C0
:102BE00005221A7411E0786800F0ACFFF860FB6809
:102BF000002B0CD17B6809221A7408E00023FB60CB
:102C000000237B6004E000BF02E000BF00E000BFE3
:102C10007B68002B05D0FB68002B02D1786801F09F
:102C200093F9FB6818461037BD46B0BD6019001017
:102C30006C19001074190010701900106819001038
:102C400080B582B000AF78607B681B7C012B08D018
:102C50007B6893F8203043F01003DAB27B6883F886
:102C6000202001217868FFF7DFFE03461846083769
:102C7000BD4680BD80B58CB002AF786039607B689E
:102C80001B7C0A2B08D179682F4800F067FE796811
:102C90000220FFF76DFD53E07B689B6D7B627B68D4
:102CA0005B6A3B627B681B68FB607B685B683B61BF
:102CB0007B689B8BFB837B68DB8BBB837B68D3F858
:102CC0009430BB617B685B697B6179681F4800F069
:102CD00045FE7B689B6F002B04D07B689B6F18467A
:102CE00000F01EFC7B685B6F002B04D07B685B6F81
:102CF000184600F015FC7B68DB6F002B04D07B6866
:102D0000DB6F184600F00CFC79680220FFF730FDFD
:102D1000BB69002B04D0BB696FF009017869984743
:102D20003B68002B0CD007F1100107F10C02BB8BA4
:102D30000193FB8B00930B46396A786A01F02CFBF8
:102D400000BF2837BD4680BD7419001060190010FF
:102D500080B582B000AF786001217868FFF78AFF04
:102D600000BF0837BD4680BD80B485B000AF786035
:102D70007B685B6A7A68128D1344FB607B68DB6A50
:102D80007A68128FB2F5866F02D87A68128F01E0E6
:102D90004FF486621344FA68D31A002B08DB7B6871
:102DA0001A8D7B685A857B68DB6AFA68D31A15E04E
:102DB0007B685A6A7B68DB6AD31A002B03DD7B6869
:102DC00000225A8509E07B68DA6A7B685B6AD31A5D
:102DD000BB60BB689AB27B685A85002318461437DB
:102DE000BD4680BC704700BF80B584B000AF78603E
:102DF0000B467B807B681A8D7B8813449AB27B6874
:102E00001A857B681B8DB3F5066F03D97B684FF479
:102E100006621A857868FFF7A7FF0346FB60FB6828
:102E2000B3F5067F0BDB7B6893F8203043F0020399
:102E3000DAB27B6883F82020786801F085F800BF5B
:102E40001037BD4680BD00BF80B483B000AF194BC2
:102E50001B885A1C91B2174A11804FF6FF72934299
:102E600003D1144B4FF440421A8000237B6016E0DC
:102E7000114A7B6852F823301B683B6009E03B68CD
:102E80009A8B0C4B1B889A4200D1E0E73B68DB68C9
:102E90003B603B68002BF2D17B6801337B607B6831
:102EA000032BE5DD034B1B8818460C37BD4680BC61
:102EB000704700BF080000105498000080B588B02B
:102EC00000AFF860B9603B601346FB80FB681B7C79
:102ED000002B02D06FF00803B6E0BB68002B0AD0CD
:102EE000FB68BA6812685A60FB68FA88DA83FB6884
:102EF000002B07D002E06FF00503A5E0FB681B681C
:102F0000002B0FD1FB680433184604F0FFFAF86178
:102F1000FB69002B02D16FF0030395E0FB695A684F
:102F2000FB681A60FB689B8B7B83FB689B8B002B89
:102F300005D1FFF789FF03461A46FB689A8300F024
:102F400065FD7861FB6800225A62FB687A699A65C0
:102F50007B695A1EFB68DA647B695A1EFB689A66B5
:102F6000FB684FF406621A85FB684FF406625A85C7
:102F7000FB685A6AFB68DA62FB684FF40662A3F8E2
:102F80005C20FB684FF406721A87FB681B8FB968D8
:102F9000184600F04FFD03461A46FB681A87FB6887
:102FA0000122A3F85220FB681B8F1A46920013449B
:102FB0005B009AB2FB68A3F85420FB683A68C3F838
:102FC0008C200221F86800F081FE38613B69002BFB
:102FD00039D1FB6802221A747B8B002B27D01C4B43
:102FE0001A68FB689A4205D1194B1B68DB68184ABE
:102FF000136019E0164B1B68164A136010E0154B5E
:103000001B68DA68FB689A4205D1124B1B68FA68A4
:10301000D268DA6008E00F4B1B68DB680D4A13606A
:103020000C4B1B68002BEAD1FB680022DA600A4BCC
:103030001A68FB68DA60084AFB68136003F0BCFF9B
:10304000F86800F081FF3B6918462037BD4680BD17
:10305000701900106C19001060190010B0B58AB01A
:1030600002AF00233B61A54B1B680133A34A1360E9
:103070000023BB61A24B1B68FB61ABE10023FB7526
:103080000023BB75FB691B7C022B08D1FB6993F8FD
:103090004A30062B03D1FB7D0133FB7592E0FB69BF
:1030A00093F84A300C2B03D1FB7D0133FB7589E08B
:1030B000FB6993F8A030002B26D0FB69D3F89C3035
:1030C0005A1CFB69C3F89C20FB69D3F89C30FA6951
:1030D00092F8A020013A8B498A5C934272D3FB6933
:1030E0000022C3F89C20FB6993F8A030062B07D878
:1030F000FB6993F8A0300133DAB2FB6983F8A020B2
:10310000F86901F0CDFA5DE0FB69B3F93630002BC8
:1031100008DBFB69B3F936309BB201339BB21AB2BC
:10312000FB69DA86FB699B6F002B4BD0FB69B3F917
:103130003620FB69B3F948309A4243DBFB691B7CBC
:10314000022B14D0FB69B3F94430DB101BB21A46D2
:10315000FB69B3F946301344FA6992F84A201146E4
:10316000694A525C93401AB2FB69A3F84820FB6994
:103170000022DA86FB69B3F85C20FB69B3F85230B1
:10318000934228BF1346FB81FB895B089AB2FB6917
:10319000A3F85420FB69B3F854301A46FB691B8F1F
:1031A0005B009A4206DAFB691B8F5B009AB2FB69EF
:1031B000A3F85420FB691A8FFB69A3F85220F86921
:1031C00001F05EF9FB691B7C062B09D14B4B1A6899
:1031D000FB691B6BD31A282B02D9FB7D0133FB75CE
:1031E000FB691B7A03F00803002B41D0FB691B7CB1
:1031F000042B03D0FB691B7C072B39D13F4B1A688A
:10320000FB691B6BD21AFB69D3F8983003F52423B2
:1032100003F6B8433D49A1FB03135B099A4206D963
:10322000FB7D0133FB75BB7D0133BB7520E0334B68
:103230001A68FB691B6BD21AFB69D3F89810FB69FB
:1032400093F8A1301846324B03FB00F30B442F498F
:10325000A1FB03135B099A420AD9F86901F0DCF972
:10326000FB6993F8A1300133DAB2FB6983F8A1203E
:10327000FB69DB6F002B16D0204B1A68FB691B6BB8
:10328000D21AFB69B3F9483019460B465B000B4470
:103290005B009A4207D3FB69DB6F184600F040F9E8
:1032A000FB690022DA67FB691B7C032B09D1134BF6
:1032B0001A68FB691B6BD31A282B02D9FB7D0133DB
:1032C000FB75FB691B7C092B09D10C4B1A68FB6948
:1032D0001B6BD31AF02B02D9FB7D0133FB75FB7DF1
:1032E000002B47D0F86900F0F5FABB69002B11D02C
:1032F000FB69DA68BB69DA6010E000BF641900108E
:10330000601900104C9800003C980000D34D6210EA
:10331000F8240100FB69DB684D4A1360FB69D3F8B0
:103320009430002B08D0FB69D3F89430FA695269C5
:103330006FF0090110469847BB7D002B10D0FB6948
:10334000986DFB69596AFC69FB691D1DFB699B8BC4
:10335000FA69D28B019200932B46224601F01CF8A9
:10336000FB69BB60FB69DB68FB61B9680220FFF7A2
:10337000FFF92FE0FB69BB61FB69DB68FB61BB699F
:1033800093F834300133DAB2BB6983F83420BB6977
:1033900093F83420BB6993F835309A421AD3BB694D
:1033A000002283F83420BB69D3F89030002B09D079
:1033B000BB69D3F89030BA695269B9691046984729
:1033C000386101E000233B613B69002B02D1B86901
:1033D00000F0BAFDFB69002B7FF450AE0023BB6107
:1033E0001C4B1B68FB612CE00023FB751A4B1A6811
:1033F000FB691B6BD31AF02B02D9FB7D0133FB75E4
:10340000FB7D002B18D0F86900F064FABB69002B33
:1034100004D0FB69DA68BB69DA6003E0FB69DB684A
:103420000C4A1360FB697B60FB69DB68FB617968B0
:103430000220FFF79DF904E0FB69BB61FB69DB68D3
:10344000FB61FB69002BCFD100BF2037BD46B0BD6B
:1034500060190010741900106419001090B585B03F
:1034600000AF2E4B1B68FB6051E0FB68DB687B60A4
:10347000FB68D3F88030002B28D0FB68D3F8883065
:10348000002B0CD0FB68D3F88840FB685869FB68B8
:10349000D3F880200023F968A047B86008E0FB68F3
:1034A000D3F880200023F968002000F08FF8B8607E
:1034B000BB68002B04D1FB680022C3F8802005E024
:1034C000BB6813F10A0F01D10023FB60FB68002BDE
:1034D0001BD0FB6893F8203003F00103002B14D0BD
:1034E000FB6893F8203043F00203DAB2FB6883F8FC
:1034F0002020F86800F028FDFB6893F8203023F0C6
:103500000303DAB2FB6883F820207B68FB60FB686A
:10351000002BAAD100BF1437BD4690BD6019001022
:1035200080B584B000AF786007E07B681B68FB6003
:10353000786800F009F8FB687B607B68002BF4D1A9
:1035400000BF1037BD4680BD80B582B000AF786047
:103550007B68002B0CD07B685B68002B04D07B68F9
:103560005B68184603F06EFB79680420FFF700F9EA
:1035700000BF0837BD4680BD80B483B000AF78601F
:103580000B46FB707B68FA785A7400BF0C37BD4657
:1035900080BC704780B584B000AF78600420FFF72E
:1035A00073F8F860FB68002B01D100230AE01022B9
:1035B0007968F86806F06AF8FB685B68184603F0FB
:1035C000B3FBFB6818461037BD4680BD80B584B09C
:1035D00000AFF860B9607A603B607B68002B09D06F
:1035E0007B681B891946B868FFF7FEFB786803F013
:1035F00029FB07E03B68002B04D1B868FFF720FBEC
:10360000034600E0002318461037BD4680BD00BFCA
:1036100080B586B000AF0346FB717F23FB720023A9
:10362000FB6000233B61184B1B687B611FE07B69DB
:103630005B7CFA799A4217D37B695B7CFA7A9A426F
:1036400012D3124B1A687B691B6BD21AFB689A4221
:103650000AD30E4B1A687B691B6BD31AFB607B691C
:103660003B617B695B7CFB727B69DB687B617B69AF
:10367000002BDCD13B69002B02D03869FFF768FBD7
:1036800000BF1837BD4680BD6019001064190010D6
:1036900080B584B000AF00237B600023BB60124B79
:1036A0001B68FB6012E0114B1A68FB681B6BD21A97
:1036B0007B689A4207D30D4B1A68FB681B6BD31AC1
:1036C0007B60FB68BB60FB68DB68FB60FB68002B12
:1036D000E9D1BB68002B02D0B868FFF739FB00BF07
:1036E0001037BD4680BD00BF74190010641900106A
:1036F00080B584B000AF0346FB710220FEF7C4FF23
:10370000F860FB68002B26D1FFF7C2FF0220FEF70E
:10371000BBFFF860FB68002B12D1FB791846FFF75E
:1037200077FF0220FEF7B0FFF860FB68002B07D0A0
:103730003A4BB3F8CC30013B9AB2384BA3F8CC20CB
:10374000FB68002B07D0354BB3F8CC30013B9AB265
:10375000324BA3F8CC20FB68002B59D0A4220021C7
:10376000F86806F009F8FB68FA795A74FB684FF4B8
:103770000172A3F86E20FB680022A3F87020FB689A
:103780004FF406621A85FB684FF406625A85FB689F
:1037900000225A72FB68FF229A72FB684FF406728D
:1037A0001A87FB680622A3F84820FB680022A3F8CA
:1037B0004420FB680622A3F84620FB684FF6FF7200
:1037C000DA86FB680122A3F8522000F01FF9B860E6
:1037D000FB68BA685A66FB68BA689A65FB68BA689B
:1037E000DA64FB68BA689A660D4B1A68FB681A635C
:1037F000FB68002283F83420FB680A4AC3F888205B
:10380000FB68094AC3F89820FB68002283F8A120CE
:10381000FB6818461037BD4680BD00BF7819001000
:1038200064190010CD35000000DD6D0080B500AFDB
:103830004020FFF75DFF0346184680BD80B483B08B
:1038400000AF786039607B683A685A6100BF0C3716
:10385000BD4680BC704700BF80B483B000AF7860C5
:1038600039607B683A68C3F8882000BF0C37BD46D2
:1038700080BC704780B483B000AF786039607B68EB
:103880003A68C3F8842000BF0C37BD4680BC70473F
:1038900080B483B000AF786039607B683A68C3F861
:1038A000942000BF0C37BD4680BC704780B485B003
:1038B00000AFF860B9601346FB71FB68BA68C3F8E3
:1038C0009020FB68FA7983F8352000BF1437BD4695
:1038D00080BC704780B582B000AF78607B681B7C8D
:1038E000002B37D07B681B7C0A2B33D07B681B7C7A
:1038F000012B2FD07B68D3F88030002B09D07B6858
:10390000D3F88030184603F09DF97B680022C3F895
:1039100080207B68DB6F1846FFF702FE7B68002281
:10392000DA677B684FF6FF72DA867B685B6F184652
:10393000FFF7F6FD7B689B6F1846FFF7F1FD7B688C
:1039400000225A677B685A6F7B689A677B680022FF
:10395000A3F8722000BF0837BD4680BD80B582B095
:1039600000AF786039607B681A683B689A4205D17D
:103970007B681B68DA687B681A6019E07B681B68E3
:10398000214A136010E0204B1B68DA683B689A42BA
:1039900005D11D4B1B683A68D268DA6008E01A4B03
:1039A0001B68DB68184A1360174B1B68002BEAD1B1
:1039B0003B680022DA603868FFF78CFF3B681B7CAD
:1039C0000A2B16D03B681B7C012B12D03B6893F866
:1039D000203003F00103002B0BD03B6893F820301C
:1039E00043F00203DAB23B6883F82020386800F025
:1039F000ABFA3B681B7C012B3B6800221A7400BFAA
:103A00000837BD4680BD00BF6C19001080B400AF00
:103A1000064B1A68064B1B681344044A1360034B99
:103A20001B681846BD4680BC704700BF0C000010E4
:103A30006419001080B584B000AF03463960FB8084
:103A4000386803F063FDF860FB68002B0DD0FB685D
:103A50001B8C002B09D0FB681B8C283B7B817A894F
:103A6000FB88934228BF1346FB80FB88184610371B
:103A7000BD4680BD80B586B000AFF8607B600B4668
:103A80007B8113463B817A893B8913449BB2143373
:103A90009BB200221946012002F0AEFE78617B69DC
:103AA000002B4AD07B695B683B61FB689B8B1846A7
:103AB00003F012FB03461A463B691A80FB68DB8B56
:103AC000184603F009FB03461A463B695A803B69D6
:103AD0007A685A60FB685B6A184603F01FFB02466F
:103AE0003B699A607B899B089BB205339BB21B03A1
:103AF0009BB243F010039BB2184603F0EDFA034665
:103B00001A463B699A81FB685B8D184603F0E4FA1C
:103B100003461A463B69DA813B6900221A74002287
:103B20005A743B6900229A740022DA74FB685B6A5B
:103B3000FA68528D1A44FB68DA627B6918461837B6
:103B4000BD4680BDB0B584B000AF78607B685B6F68
:103B5000002B25D07B685B6FFB6002E0FB681B6875
:103B6000FB60FB681B68002BF8D1FB68DB689B8956
:103B70009BB2184603F0C4FA034603F00703002B78
:103B80000ED1FB68DC68FB68DB689B899DB2012075
:103B900003F0A2FA03462B439BB2A381002304E067
:103BA0000121786800F092F8034618461037BD46A8
:103BB000B0BD00BF90B587B000AFF860B9603B60A2
:103BC0001346FB7197F8283003F00103002B01D056
:103BD000042200E0002297F8283003F00203002BB3
:103BE00001D00C2300E000231344FB750420FEF7F2
:103BF0004BFD38613B69002B04D1B86803F022F813
:103C000000235CE03B6997F828209A723B69002208
:103C10001A603B69BA685A60BB681A89FB7D9BB21F
:103C2000D31A9AB23B691A811421B86802F09CFF3A
:103C30000346002B0CD0244BB3F8A43001339AB2C6
:103C4000214BA3F8A4203869FFF77EFC002336E05F
:103C50003B695B685A683B69DA603B69DC68FB6812
:103C60009B8B184603F038FA034623803B69DC68D7
:103C7000FB68DB8B184603F02FFA034663803B6931
:103C8000DC68386803F04AFA034663603B69DC6825
:103C9000FB7D9B08DBB205331B031AB2FB791BB219
:103CA00013431BB29BB2184603F016FA0346A381D6
:103CB0003B69DB6800229A740022DA743B6918467B
:103CC0001C37BD4690BD00BF7819001080B58AB082
:103CD00002AF78600B46FB700023FB770023FB7577
:103CE0007B68B3F87030032B06D87B68B3F870306C
:103CF0004FF6FC72934213D96C4BB3F89C300133EE
:103D00009AB26A4BA3F89C207B6893F8203063F04A
:103D10007F03DAB27B6883F820204FF0FF33C1E0E5
:103D2000FB7803F00203002B01D00123FB77FB7F1C
:103D300003F00103002B01D0042200E00022FB7FEE
:103D400003F00203002B01D00C2300E000231344F6
:103D5000FB757B68B3F86E30002B0AD1534BB3F878
:103D60009C3001339AB2514BA3F89C204FF0FF33A3
:103D700098E0FB7D9BB200221946002002F03CFD3A
:103D800038613B69002B13D17B6893F8203063F0D6
:103D90007F03DAB27B6883F82020444BB3F89C3071
:103DA00001339AB2414BA3F89C204FF0FF3379E0E6
:103DB0007B68996EFA78FB7F00930B4639697868C7
:103DC000FFF7F8FEF860FB68002B13D17B6893F8CF
:103DD000203063F07F03DAB27B6883F82020334B16
:103DE000B3F89C3001339AB2304BA3F89C204FF0CB
:103DF000FF3357E07B685B6F002B03D17B68FA6869
:103E00005A670DE07B685B6FBB6102E0BB691B68B2
:103E1000BB61BB691B68002BF8D1BB69FA681A60EB
:103E20007B680022A3F87220FB7803F00203002BCA
:103E300004D1FB7803F00103002B0CD07B689B6E50
:103E40005A1C7B689A667B68B3F86E30013B9AB265
:103E50007B68A3F86E20FB7803F00103002B08D0E9
:103E60007B6893F8203043F02003DAB27B6883F854
:103E70002020FB685B68184602F040FF03461946A5
:103E80007B68B3F870208BB213449AB27B68A3F8B6
:103E900070207B68B3F87030002B02D07B689B6F7A
:103EA000002B002318462037BD4680BD781900102E
:103EB00090B589B002AF78600023FB75FB7D9CB2A2
:103EC0007B689B6D184603F029F9034600222146C2
:103ED0007868FFF7CFFD38613B69002B02D16FF0A6
:103EE00001032CE03B695B68FB607B6893F8203042
:103EF00023F00303DAB27B6883F8202079687B68BB
:103F00001A1D3B691B8900930623386903F030FEB4
:103F100003461A46FB681A8279687B68181D7B681D
:103F20009C7A7B685B7A06220192009323460246C4
:103F3000386903F091FD386902F084FE00231846C9
:103F40001C37BD4690BD00BFB0B588B000AF7860EB
:103F5000994B1A687B689A4201D1002363E17B6820
:103F6000B3F852207B68B3F85C30934228BF134605
:103F70009BB23B617B685B6FFB617B6893F8203091
:103F800003F00203002B17D0FB69002B0FD0FB6955
:103F9000DB685B68184603F0D9F802467B68DB6C87
:103FA000D31AFA6912891A443B699A4204D978688B
:103FB000FFF77EFF034636E17B689B6FBB61BB6901
:103FC000002B00F0E48002E0BB691B68BB61BB69A9
:103FD0001B68002BF8D1DAE0FB69DB689B899BB298
:103FE000184603F08DF87B689B6F002B16D07B681A
:103FF00093F8203003F04403002B0FD17B685B6FF4
:10400000002B0DD07B685B6F1B68002B06D17B6893
:104010005B6F1A897B681B8F9A4201D3012300E0F2
:104020000023002B07D17B6893F8203003F0A00316
:10403000002B00F0C380FB691A687B685A677B68B5
:104040001B7C022B15D0FB69DC68FB69DB689B8954
:104050009DB2102003F040F803462B439BB2A3818E
:104060007B6893F8203023F00303DAB27B6883F88F
:1040700020207968F86900F0DBF8FB69DB685B6891
:10408000184603F063F80446FB691B891D46FB696B
:10409000DB689B899BB2184603F032F8034603F0B5
:1040A0000303002B14BF01230023DBB22B44234462
:1040B000FB607B689A6DFB68D31A002B02DA7B6881
:1040C000FA689A65FB691B891C46FB69DB689B895A
:1040D0009BB2184603F014F8034603F00303002BC9
:1040E00014BF01230023DBB22344002B49DDFB690D
:1040F00000221A607B689B6F002B05D17B68FA69F0
:104100009A67FB69BB613FE0FB69DB685B68184647
:1041100003F01CF80446BB69DB685B68184603F0D3
:1041200015F80346E31A002B24DA7B6878337B61A9
:1041300002E07B691B687B617B691B68002B11D0E7
:104140007B691B68DB685B68184602F0FFFF04466A
:10415000FB69DB685B68184602F0F8FF0346E31A68
:10416000002BE6DB7B691A68FB691A607B69FA69D8
:104170001A6009E0BB69FA691A60BB691B68BB6118
:1041800002E0F869FFF7E0F97B685B6FFB61FB69B0
:10419000002B14D0FB69DB685B68184602F0D6FF81
:1041A00002467B68DB6CD31AFA6912891A443B69B0
:1041B0009A427FF611AF02E0901A001000BF7B68B0
:1041C0005B6F002B03D17B680022A3F87220FB6990
:1041D000002B1ED07B6893F8A030002B19D1FB690F
:1041E000DB685B68184602F0B1FF02467B68DB6C57
:1041F000D31AFA69128913447A68B2F85C209342A0
:1042000007D97B680022C3F89C207B68012283F8D1
:10421000A0207B6893F8203003F07F03DAB27B683C
:1042200083F82020002318462037BD46B0BD00BFCC
:10423000B0B588B002AF786039607B68DC683B68F5
:104240005B6A184602F06AFF0346A3607B68DC687D
:104250003B685B8D184602F03FFF0346E3813B68F5
:104260005B6A3A68528D1A443B68DA627B68DB68A5
:1042700014337B617B689B7A03F00103002B05D02C
:104280007B69424A1A607B6904337B613B68B3F9FE
:104290003630B3F1FF3F02D13B680022DA863B683B
:1042A000002B03D03B681B68002B0CD13B68043308
:1042B000184603F02BF938613B69002B62D03B694B
:1042C0005A683B681A603B68DB6B002B0CD1304BA3
:1042D0001A683B68DA637B68DB685B68184602F043
:1042E00035FF02463B681A647B68DB681A467B68C8
:1042F0005B685B68D31AFB817B685B687A6852688D
:104300005189FA898A1A92B25A817B685B687A6805
:1043100052681189FA898A1A92B21A817B685B689D
:104320007A68D2685A607B68DB6800221A740022BF
:104330005A747B68DC687B68586839683B681A1D6A
:104340007B685B681B890093062303F011FC03461E
:104350002382104BB3F8903001339AB20D4BA3F87F
:1043600090207B68586839683B681C1D3B689D7AC3
:104370003B685B7A0622019200932B46224603F0AB
:104380006BFB00E000BF1837BD46B0BD0204021849
:10439000641900107819001080B588B002AFF86079
:1043A000B9607A603B6000221421012002F024FAF7
:1043B00078617B69002B5CD07B695B683B613B8CDF
:1043C000184602F089FE03461A463B691A80BB8CE8
:1043D000184602F081FE03461A463B695A80F86887
:1043E00002F09CFE02463B695A60B86802F096FEF5
:1043F00002463B699A6045F2140002F06DFE0346E6
:104400001A463B699A813B69002242F008029A737E
:10441000002242F06002DA733B6900221A74002223
:104420005A743B6900229A740022DA747B691B89F2
:10443000009306233A687968786903F099FB03468C
:104440001A463B691A820D4BB3F8903001339AB289
:104450000A4BA3F890200623019300230093FF2327
:104460003A687968786903F0F7FA786902F0EAFB4C
:1044700000E000BF1837BD4680BD00BF78190010AE
:1044800080B584B000AF78607B689B6F002B24D030
:104490007B689B6FFB6002E0FB681B68FB60FB684E
:1044A0001B68002BF8D17B685A6FFB681A607B6829
:1044B0009A6F7B685A677B6800229A677B6893F8DB
:1044C0004A300133DAB27B6883F84A207B680022E5
:1044D000DA637868FFF738FD00E000BF1037BD46AB
:1044E00080BD00BF90B585B000AF78607B689B6FE2
:1044F000002B36D07B689B6FBB60BB681A687B68FB
:104500009A677B687433FB6002E0FB681B68FB60A2
:10451000FB681B68002B11D0FB681B68DB685B68BD
:10452000184602F013FE0446BB68DB685B68184659
:1045300002F00CFE0346E31A002BE6DBFB681A6868
:10454000BB681A60FB68BA681A607B6893F84A30E7
:104550000133DAB27B6883F84A207B680022DA6391
:1045600000E000BF1437BD4690BD00BF80B582B0EB
:1045700000AF78607B689B6F002B49D07B6893F815
:10458000203003F00403002B42D17868FFF7AAFF24
:104590007B68B3F852207B68B3F85C309A4208D944
:1045A0007B68B3F85C305B089AB27B68A3F8542050
:1045B00007E07B68B3F852305B089AB27B68A3F8D7
:1045C00054207B68B3F854301A467B681B8F5B001D
:1045D0009A4206DA7B681B8F5B009AB27B68A3F86D
:1045E00054207B68B3F854207B681B8F1946490020
:1045F0000B449BB213449AB27B68A3F852207B68A9
:1046000093F8203043F00403DAB27B6883F820206B
:1046100000BF0837BD4680BD80B586B002AF786068
:104620007B689B6D013B184602F078FD0346002233
:1046300000217868FFF71EFAF860FB68002B29D08C
:10464000FB685B68BB6079687B681A1DFB681B8927
:1046500000930623F86803F08BFA03461A46BB68FA
:104660001A820E4BB3F8903001339AB20B4BA3F879
:10467000902079687B681A1D7B68987A06230193DD
:10468000002300930346F86803F0E6F9F86802F0A7
:10469000D9FA00E000BF1037BD4680BD7819001080
:1046A00090B58BB002AF78607B689B6FFB61FB6954
:1046B000002B02D17B685B6FFB61FB69002B7FD015
:1046C000FB69DB689B899BB2184602F019FD034623
:1046D00003F00103002B05D0FB691B89002B01D1DE
:1046E000012300E00023FB76FB7E002B0CBF01239F
:1046F0000023DBB23B83FB69DB685B683A8B0021FC
:104700007868FFF7B7F978617B69002B5AD07B692D
:104710005B683B61FB7E002B11D03B699B899BB2A0
:104720001BB223F47C531CB2112002F0D5FC0346CB
:104730001BB223431BB29AB23B699A8119E0FB6911
:104740005B685B68FB607B695B681433BB60FB691B
:104750005C68FB689B899BB2184602F0D1FC03465B
:104760001B0B9BB29B009BB20122B968204602F052
:104770009BFB79687B681A1D7B691B890093062364
:10478000786903F0F5F903461A463B691A820F4B24
:10479000B3F8903001339AB20C4BA3F890207968AB
:1047A0007B681A1D7B68987A062301930023009387
:1047B0000346786903F050F9786902F043FA02E0A1
:1047C00000BF00E000BF2437BD4690BD781900103F
:1047D00090B58BB002AF78603960A54BB3F89230DA
:1047E00001339AB2A24BA3F892207B685B68A14A7E
:1047F00013607B685C689F4B1B681B889BB21846E4
:1048000002F07EFC03461B0A9BB203F00F039B00E1
:104810002344994A1360974B1B681B889BB2184628
:1048200002F06EFC03461B0A9BB203F00F039BB21F
:104830009B009BB25B429BB21BB21946786802F0A8
:1048400093F90346002B03D17B681B89132B13D8E4
:10485000874BB3F89A3001339AB2854BA3F89A206C
:10486000834BB3F8963001339AB2814BA3F896206C
:10487000786802F0E7F90AE3804B1B68396818464C
:1048800003F058FA0346002B05D17C4B1B6803F05C
:10489000F003E02B13D1764BB3F8A03001339AB27A
:1048A000734BA3F8A020724BB3F8963001339AB241
:1048B0006F4BA3F89620786802F0C4F9E7E27B68B2
:1048C0001B89009306236D4A6D49786803F050F9FF
:1048D0000346002B13D0664BB3F8983001339AB2DD
:1048E000634BA3F89820624BB3F8963001339AB229
:1048F0005F4BA3F89620786802F0A4F9C7E25E4BFC
:104900001B689B899BB2184602F0FAFB03461B0BFF
:104910009BB2FB73FB7B9BB21A469203D31A9B009C
:104920009BB21BB21946786802F01EF90346002BB1
:1049300013D04F4BB3F89A3001339AB24C4BA3F8D3
:104940009A204B4BB3F8963001339AB2484BA3F8F8
:104950009620786802F076F999E2474B1C68464B3E
:104960001B681B889BB2184602F0CAFB03462380D3
:10497000414B1C68404B1B685B889BB2184602F099
:10498000BFFB034663803C4B1C683B4B1B685B686A
:10499000184602F0DBFB034663606368394A136024
:1049A000354B1C68344B1B689B68184602F0CEFBE5
:1049B0000346A360A368344A13602F4B1C682E4B38
:1049C0001B68DB899BB2184602F09AFB0346E38121
:1049D000294B1B689B899BB2184602F091FB03464A
:1049E000DBB203F03F03DAB2284B1A707B681A89F6
:1049F000264B1B7803F00303002B14BF0123002375
:104A0000DBB29BB213449AB2214B1A800023BB61E4
:104A1000204B1B68FB6144E0FB69DA8B164B1B687B
:104A20001B889BB29A4237D1FB699A8B124B1B6849
:104A30005B889BB29A422FD1FB695A68104B1B6866
:104A40009A4229D1FB691A680C4B1B689A4223D100
:104A5000BB69002B29D0FB69DA68BB69DA600D4BB2
:104A60001A68FB69DA600B4AFB6913601DE000BF3E
:104A7000781900100412001000120010A01A001083
:104A8000981A0010081200100C12001010120010DA
:104A90001212001060190010FB69BB61FB69DB6832
:104AA000FB61FB69002BB7D100E000BFFB69002B65
:104AB00067D1934B1B68FB6125E0FB69DA8B914B57
:104AC0001B681B889BB29A421AD1FB699A8B8D4B4B
:104AD0001B685B889BB29A4212D1FB695A688A4B69
:104AE0001B689A420CD1FB691A68884B1B689A4272
:104AF00006D1F86900F0A4FA786802F0A3F8C6E1DC
:104B0000FB69DB68FB61FB69002BD6D10023BB612D
:104B10007F4B1B687B6119E07B699A8B794B1B6823
:104B20005B889BB29A420CD17B691A68774B1B68F1
:104B30009A420ED07B69002B0BD07B691B68002B3F
:104B400007D07B69BB617B69DB687B617B69002B7C
:104B5000E2D17B69002B14D0BB69002B0AD07B69A2
:104B6000DA68BB69DA606A4B1A687B69DA60684A9E
:104B70007B691360786900F0A5F9786802F062F843
:104B800085E1FB69002B00F04D81624B00221A6029
:104B90007B681A895F4B1A815E4A7B685360594B68
:104BA0001B685C4AD3605C4B00221A605B4B00229E
:104BB0001A70FB69D3F88030002B36D0FB69D3F82C
:104BC0008830002B0CD0FB69D3F88840FB6958690A
:104BD000FB69D3F880200023F969A047386108E019
:104BE000FB69D3F880200023F9690020FEF7EEFC72
:104BF00038613B69002B04D1FB690022C3F8802097
:104C000013E03B6913F10A0F03D0454B1B88002BBF
:104C10000BD0444BB3F8963001339AB2414BA3F812
:104C20009620786802F00EF831E13F4AFB69136084
:104C3000F86900F071FA38613B6913F10A0F00F06E
:104C4000DE80364B1B7803F00803002B16D0FB697F
:104C5000D3F89430002B08D0FB69D3F89430FA696C
:104C600052696FF00A0110469847F9692F48FEF71C
:104C700075FEF9690220FDF77BFDC0E0274B1B782C
:104C800003F01003002B08D0F9692848FEF766FEF0
:104C9000F9690220FDF76CFDB1E000233B61FB697F
:104CA000B3F86C30002B17D0FB69D3F88430002B9D
:104CB0000BD0FB69D3F88430FA695069FA69B2F80D
:104CC0006C20F9699847386101E000233B613B693A
:104CD00013F10A0F00F08E800F4B1B68002B5BD086
:104CE000FB6993F8203003F01003002B20D00A4B0F
:104CF0001B68184601F0A6FFF869FEF729F87EE068
:104D00007419001000120010981A0010A01A001058
:104D100068190010F0110010181200101412001081
:104D20001212001078190010901A0010601900106B
:104D3000584B1B7803F00803002B08D0564B1B6818
:104D4000554A1268527B42F00102D2B25A73FB6993
:104D5000D3F88830002B0BD0FB69D3F88840FB696F
:104D600058694D4B1A680023F969A047386107E07C
:104D7000494B1A680023F9690020FEF727FC3861C7
:104D80003B6913F10A0F37D03B69002B04D0424B2B
:104D90001A68FB69C3F88020404B1B7803F020039E
:104DA000002B20D0FB691B8DB3F5066F05D0FB6986
:104DB0001B8D01339AB2FB691A85FB69D3F88830E1
:104DC000002B0AD0FB69D3F88840FB69586900239F
:104DD0000022F969A047386101E000233B613B698B
:104DE00013F10A0F0AD02E4B00221A60F869FFF760
:104DF000ABF804E000BF02E000BF00E000BF284BBA
:104E000000221A60244B00221A60264B5B68002B9C
:104E10003DD0244B5B68184601F014FF214B002263
:104E20005A6034E0204B1B689B899BB2184602F005
:104E300067F9034603F00403002B25D11B4BB3F89D
:104E4000A03001339AB2194BA3F8A020174BB3F846
:104E5000963001339AB2154BA3F89620144B18687C
:104E6000144B1B881A46144B1B68D1180E4B1B6839
:104E70005B889BB20C4A1268128892B2019200932E
:104E80000E4B0F4AFFF788FA786801F0DBFE2437F3
:104E9000BD4690BD10120010181200101412001020
:104EA000901A0010F0110010001200107819001074
:104EB0000C1200101212001008120010981A0010A4
:104EC000A01A001080B586B002AF7860534B1B78F3
:104ED00003F01003002B17D0514B1B68581C514B8B
:104EE0001B881A46504B1B68D118504B1B685B88B7
:104EF0009BB24E4A1268128892B2019200934C4BB8
:104F00004C4AFFF749FA83E0444B1B7803F0020355
:104F1000002B7DD07B685B7C1846FEF7E9FBF860D0
:104F2000FB68002B0AD1444BB3F89C3001339AB292
:104F3000414BA3F89C204FF0FF336AE03D4B1A68C9
:104F4000FB681A607B689A8BFB689A83384B1A68F7
:104F5000FB685A60354B1B681B889AB2FB68DA8382
:104F6000FB6803221A74304B1B685A1CFB685A6298
:104F7000FB685A6AFB68DA622C4B1B68DB899AB2C1
:104F8000FB68A3F85C20FB68B3F85C20FB68A3F81F
:104F90005420254B1B685A1EFB681A667B685A69A9
:104FA000FB685A617B689A69FB689A617B681B7A27
:104FB00023F07303DAB2FB681A72204B1A68FB689D
:104FC000DA601E4AFB68136001F0F6FFF86801F032
:104FD00091FBFB681A8FFB68043319461046FEF7F5
:104FE00029FD03461A46FB681A871221F868FEF766
:104FF0006DFEB860BB68002B05D00021F868FDF796
:1050000039FEBB6805E0F868FEF79EFF034600E046
:10501000002318461037BD4680BD00BF1012001097
:105020000C120010121200100812001000120010D2
:10503000981A0010A01A00107819001060190010BA
:1050400080B584B002AF78602B4B1B7803F004036B
:10505000002B01D000234BE0274B1B7803F0020309
:10506000002B28D0254B1A687B685B6AD31A002B6B
:105070002BDB224B1A687B685B6A7968098D0B44CD
:10508000D31A002B21DC1E4B18681E4B1B881A46B6
:105090001A4B1B68D1181C4B1B685B889BB21A4AC1
:1050A0001268128892B201920093184B184AFFF7C7
:1050B00073F900231CE0104B1B7803F00103002B55
:1050C00003D0144B1A687B681A630E4B1B88002BA5
:1050D0000DD07B6893F8203043F00203DAB27B688E
:1050E00083F820207868FEF72FFF034600E00023B6
:1050F00018460837BD4680BD101200100812001077
:105100000C1200101212001000120010981A001059
:10511000A01A00106419001080B588B002AF786042
:105120000023FB7500233B61A44B1B7803F00403B1
:10513000002B37D07B681B7C022B08D17B689A6DD3
:105140009F4B1B689A4215D10123FB7512E09D4BC2
:105150001A687B685B6AD31A002B0BDB994B1A68C1
:105160007B685B6A7968098D0B44D31A002B01DCDC
:105170000123FB75FB7D002B12D0934B1B7843F072
:105180000803DAB2904B1A707B6893F8203023F052
:105190000103DAB27B6883F820206FF00A030FE383
:1051A00000230DE3854B1B7803F00203002B12D084
:1051B0007B681B7C022B0ED07B681B7C032B0AD0E8
:1051C0007B6893F8203043F00203DAB27B6883F8FF
:1051D00020200023F4E27B6893F8203003F01003D2
:1051E000002B03D1794B1A687B681A637B68002215
:1051F00083F8A120786801F07DFA7B681B7C023B74
:10520000072B00F2CD8201A252F823F02D520000AC
:10521000E15300000B5500003955000023560000F3
:105220000B550000E556000073570000634B1B78D8
:1052300003F01003002B00F0A280604B1B7803F0FA
:105240000203002B00F09B807B689B6FDB685B6830
:10525000184601F07BFF03465A1C594B1B689A42C3
:1052600040F08D807B68B3F86E3001339AB27B6872
:10527000A3F86E20534B1B685A1C7B685A627B68EC
:105280005A6A7B68DA624E4B1A687B68DA64504B64
:105290001B68DB899AB27B68A3F85C20494B1B68CA
:1052A0005A1E7B681A667B6804221A747B681A8F00
:1052B0007B68043319461046FEF7BCFB03461A46CA
:1052C0007B681A877B681B8F1A46920013445B0029
:1052D0009AB27B68A3F854207B68B3F85230012B54
:1052E00004D17B681B8F5B009BB201E07B681B8F46
:1052F0007A68A2F852307B68B3F87030013B9AB2FA
:105300007B68A3F870207B689B6FFB60FB681A6862
:105310007B689A677B689B6F002B04D17B684FF694
:10532000FF72DA8606E07B680022DA867B6800225C
:1053300083F84A20F868FEF707F97B68D3F88C30C9
:10534000002B09D07B68D3F88C307A685069002232
:1053500079689847386101E000233B613B6913F1AC
:105360000A0F02D16FF009032AE27B6893F820301C
:1053700043F00203DAB27B6883F8202012E20F4B7D
:105380001B7803F01003002B00F00C820C4B186804
:10539000104B1B881A460B4B1B68D1180C4B1B6813
:1053A0005B889BB20A4A1268128892B201920093FB
:1053B000094B0A4AFEF7F0FFF4E100BF101200109B
:1053C0000C120010081200101412001064190010C2
:1053D0000012001012120010981A0010A01A0010EB
:1053E000A04B1B7803F01003002B79D09E4B1A685A
:1053F0007B68DB6CD31A013B002B5ADB9A4B1A6893
:105400007B689B6DD31A002B53DC7B6804221A74D3
:105410007B689B69002B08D07B689B697A68506920
:10542000002279689847386102E06FF00D033B6114
:105430003B69002B09D03B6913F10A0F02D0786851
:10544000FDF786FC6FF00903BAE17B68B3F85230D0
:105450007B81786800F03AFA7B68B3F86C30002BF7
:1054600007D07B68B3F86C30013B9AB27B68A3F835
:105470006C207B89012B04D17B681B8F5B009BB266
:1054800001E07B681B8F7A68A2F85230774B1B785B
:1054900003F02003002B36D07B6893F8203043F0D4
:1054A0000203DAB27B6883F820207B6807221A7433
:1054B00029E06D4B18686E4B1B881A466D4B1B68B4
:1054C000D1186D4B1B685B889BB26B4A12681288BF
:1054D00092B201920093694B694AFEF75DFF63E166
:1054E000604B1B7803F00203002B00F05D817B68AA
:1054F0005B6A5A1E5F4B1B689A4240F05581786880
:10550000FEF7F0FF50E100BF4EE1786800F0DEF9F1
:10551000564B1B7803F02003002B00F047817B687B
:1055200093F8203043F00203DAB27B6883F820203E
:105530007B6807221A7439E1786800F0C7F94B4B91
:105540001B7803F02003002B59D0464B1B7803F047
:105550001003002B46D07B689A6D434B1B689A4220
:1055600040D17B6893F8203043F00203DAB27B68C5
:1055700083F820207868FEF7ADF9424B1A687B6803
:105580009A4205D13F4B1B68DB683E4A136019E025
:105590003C4B1B683C4A136010E03B4B1B68DA68CD
:1055A0007B689A4205D1384B1B687A68D268DA600A
:1055B00008E0354B1B68DB68334A1360324B1B68CD
:1055C000002BEAD17B680022DA607B680A221A7419
:1055D0002E4B1A687B68DA602C4A7B68136001F0F6
:1055E000EBFCE5E07B6893F8203043F00203DAB28D
:1055F0007B6883F820207B6808221A74D8E0194B56
:105600001B7803F01003002B00F0D2807B689A6DAA
:10561000154B1B689A4240F0CB807B6806221A74B7
:10562000C6E0786800F052F9104B1B7803F02003B5
:10563000002B00F0BF807B6893F8203043F002031A
:10564000DAB27B6883F820207868FEF743F90D4BC7
:105650001A687B689A421BD10A4B1B68DB68094AAF
:1056600013602FE0101200100C1200101412001022
:10567000121200100812001000120010981A0010E8
:10568000A01A0010601900106C1900107419001095
:105690004D4B1B684D4A136010E04C4B1B68DA6899
:1056A0007B689A4205D1494B1B687A68D268DA60F8
:1056B00008E0464B1B68DB68444A1360434B1B6899
:1056C000002BEAD17B680022DA607B680A221A7418
:1056D0003F4B1A687B68DA603D4A7B68136001F0D3
:1056E0006BFC67E0786800F0F1F83A4B1B7803F048
:1056F0001003002B60D07B689A6D374B1B689A4271
:105700005AD17868FEF7E6F82F4B1A687B689A4200
:1057100005D12D4B1B68DB682B4A136019E02A4B1F
:105720001B682A4A136010E0284B1B68DA687B6804
:105730009A4205D1254B1B687A68D268DA6008E086
:10574000224B1B68DB68214A1360204B1B68002B2F
:10575000EAD17B680022DA607B680A221A741C4B4B
:105760001A687B68DA601A4A7B68136001F024FCCF
:1057700022E0786800F0AAF8164B1B7803F01003BB
:10578000002B1BD07B689A6D134B1B689A4215D176
:10579000124B1B7843F01003DAB2104B1A700DE075
:1057A00000BF0CE000BF0AE000BF08E000BF06E059
:1057B00000BF04E000BF02E000BF00E000BF002324
:1057C00018461837BD4680BD601900106C190010CE
:1057D00074190010101200100C1200101412001096
:1057E000B0B584B000AF786039607B68DB689B89B6
:1057F0009BB2184601F084FC034603F00103002B22
:1058000026D03868FDF78CFE00233B6054E03B68EF
:10581000DB689B899BB2184601F072FC034603F0DB
:105820000103002B0CD07B68DC687B68DB689B89FC
:105830009DB2012001F050FC03462B439BB2A38193
:105840003B68FB603B681B683B60F868FDF77CFECB
:105850003B68002B0ED07B681B891A461A4B1B68CD
:105860001A443B68DB685B68396809890B44D31AC2
:10587000002BCCDA3B68002B1ED07B681B891A46B4
:10588000114B1B681A443B68DB685B68D31A002B1A
:1058900012DD3B68DB685B689AB20B4B1B689BB2FE
:1058A000D31A9AB27B681A817B685A687B681B8915
:1058B0001946104601F0F4F87B683A681A6000BF98
:1058C0001037BD46B0BD00BF08120010F0B58DB056
:1058D00000AF78600023BB61A54B1B7803F0100379
:1058E000002B00F095827B68B3F85C301A467B6829
:1058F0005B6E13447B617B681A6E9E4B1B68D31AE8
:10590000002B1BDB7B681A6E9A4B1B689A4206D1F0
:105910007B685A6E984B1B68D31A002B0EDB7B6892
:105920005A6E954B1B689A4225D1944B1B68DB89B4
:105930009AB27B68B3F85C309A421CD98F4B1B68D3
:10594000DB899AB27B68A3F85C208A4B1A687B6873
:105950001A66894B1A687B685A667B68B3F85C30B4
:10596000002B08D07B6893F8A030002B03D07B6815
:10597000002283F8A020804B1A687B68DB6CD31A66
:10598000002B5BDC7B680022A3F86C207C4B1B881F
:10599000002B4AD17B685B6E7A68B2F85C201A44AF
:1059A0007B699A4241D17B68B3F93630002B3CDBEE
:1059B0007B68DA6C704B1B689A4236D10123BB615D
:1059C0007B6893F8503001337A6892F85020934204
:1059D00007DD7B6893F850300133DAB27B6883F8D7
:1059E00050207B6893F85030032B16D97B68B3F8AE
:1059F00052207B681B8F13449AB27B68B3F85230F5
:105A00009A4212D97B68B3F852207B681B8F1344EB
:105A10009AB27B68A3F8522007E07B6893F8503075
:105A2000032B02D17868FEF7A1FDBB69002B40F083
:105A300068817B68002283F8502062E14E4B1A682F
:105A40007B68DB6CD31A013B002BC0F214814A4BFC
:105A50001A687B689B6DD31A002B00F30C817B685E
:105A600093F8203003F00403002B0ED07B6893F8EA
:105A7000203023F00403DAB27B6883F820207B68AF
:105A8000B3F854207B68A3F852207B68002283F887
:105A90004A207B68B3F94430DB101BB29AB27B68B2
:105AA000B3F946309BB213449BB21AB27B68A3F899
:105AB0004820314B1B689AB27B68DB6C9BB2D31ACF
:105AC0009AB27B68A3F86C207B68B3F86E207B6881
:105AD000B3F86C3013449AB27B68A3F86E207B68ED
